{
  "contractName": "KYC",
  "abi": [
    {
      "inputs": [],
      "payable": false,
      "stateMutability": "nonpayable",
      "type": "constructor"
    },
    {
      "constant": false,
      "inputs": [
        {
          "name": "_userName",
          "type": "string"
        },
        {
          "name": "_customerData",
          "type": "string"
        }
      ],
      "name": "addRequests",
      "outputs": [],
      "payable": false,
      "stateMutability": "nonpayable",
      "type": "function"
    },
    {
      "constant": false,
      "inputs": [
        {
          "name": "_userName",
          "type": "string"
        },
        {
          "name": "_customerData",
          "type": "string"
        }
      ],
      "name": "addCustomer",
      "outputs": [],
      "payable": false,
      "stateMutability": "nonpayable",
      "type": "function"
    },
    {
      "constant": false,
      "inputs": [
        {
          "name": "_userName",
          "type": "string"
        }
      ],
      "name": "removeRequest",
      "outputs": [],
      "payable": false,
      "stateMutability": "nonpayable",
      "type": "function"
    },
    {
      "constant": true,
      "inputs": [
        {
          "name": "_userName",
          "type": "string"
        }
      ],
      "name": "viewCustomer",
      "outputs": [
        {
          "name": "",
          "type": "string"
        },
        {
          "name": "",
          "type": "string"
        },
        {
          "name": "",
          "type": "uint256"
        },
        {
          "name": "",
          "type": "uint256"
        },
        {
          "name": "",
          "type": "address"
        }
      ],
      "payable": false,
      "stateMutability": "view",
      "type": "function"
    },
    {
      "constant": false,
      "inputs": [
        {
          "name": "_userName",
          "type": "string"
        }
      ],
      "name": "upVoteKYCRequests",
      "outputs": [],
      "payable": false,
      "stateMutability": "nonpayable",
      "type": "function"
    },
    {
      "constant": false,
      "inputs": [
        {
          "name": "_userName",
          "type": "string"
        }
      ],
      "name": "downVoteKYCRequests",
      "outputs": [],
      "payable": false,
      "stateMutability": "nonpayable",
      "type": "function"
    },
    {
      "constant": false,
      "inputs": [
        {
          "name": "_userName",
          "type": "string"
        },
        {
          "name": "_newCustomerData",
          "type": "string"
        }
      ],
      "name": "modifyCustomer",
      "outputs": [],
      "payable": false,
      "stateMutability": "nonpayable",
      "type": "function"
    },
    {
      "constant": true,
      "inputs": [
        {
          "name": "_bankAddress",
          "type": "address"
        }
      ],
      "name": "viewComplaints",
      "outputs": [
        {
          "name": "",
          "type": "uint256"
        }
      ],
      "payable": false,
      "stateMutability": "view",
      "type": "function"
    },
    {
      "constant": true,
      "inputs": [
        {
          "name": "_bankAddress",
          "type": "address"
        }
      ],
      "name": "viewBankDetails",
      "outputs": [
        {
          "name": "Name",
          "type": "string"
        },
        {
          "name": "ethAddress",
          "type": "address"
        },
        {
          "name": "regNumber",
          "type": "string"
        },
        {
          "name": "downVotes",
          "type": "uint256"
        },
        {
          "name": "isAllowedToVote",
          "type": "bool"
        },
        {
          "name": "KYCCount",
          "type": "uint256"
        }
      ],
      "payable": false,
      "stateMutability": "view",
      "type": "function"
    },
    {
      "constant": false,
      "inputs": [
        {
          "name": "_bankAddress",
          "type": "address"
        }
      ],
      "name": "reportABank",
      "outputs": [],
      "payable": false,
      "stateMutability": "nonpayable",
      "type": "function"
    },
    {
      "constant": false,
      "inputs": [
        {
          "name": "_name",
          "type": "string"
        },
        {
          "name": "_bankAddress",
          "type": "address"
        },
        {
          "name": "_regNumber",
          "type": "string"
        }
      ],
      "name": "addBank",
      "outputs": [],
      "payable": false,
      "stateMutability": "nonpayable",
      "type": "function"
    },
    {
      "constant": false,
      "inputs": [
        {
          "name": "_bankAddress",
          "type": "address"
        }
      ],
      "name": "removeBank",
      "outputs": [],
      "payable": false,
      "stateMutability": "nonpayable",
      "type": "function"
    },
    {
      "constant": false,
      "inputs": [
        {
          "name": "_bankAddress",
          "type": "address"
        }
      ],
      "name": "ChangeVotingStatusOfBank",
      "outputs": [],
      "payable": false,
      "stateMutability": "nonpayable",
      "type": "function"
    }
  ],
  "bytecode": "0x608060405234801561001057600080fd5b5033600160006101000a81548173ffffffffffffffffffffffffffffffffffffffff021916908373ffffffffffffffffffffffffffffffffffffffff16021790555060008081905550613d20806100686000396000f3fe608060405234801561001057600080fd5b50600436106100cf5760003560e01c806388cc8d8d1161008c578063ba6e54fc11610066578063ba6e54fc14610945578063ccfa8e711461099d578063dd159cd314610b0f578063f72860ca14610b53576100cf565b806388cc8d8d146106d15780639649650c14610846578063b607d0ca1461088a576100cf565b8063107925bb146100d45780633190abc0146102b55780633ee436b71461040757806355b81588146104c25780636cba00e6146106145780637b05a0851461068d575b600080fd5b61018d600480360360208110156100ea57600080fd5b810190808035906020019064010000000081111561010757600080fd5b82018360208201111561011957600080fd5b8035906020019184600183028401116401000000008311171561013b57600080fd5b91908080601f016020809104026020016040519081016040528093929190818152602001838380828437600081840152601f19601f820116905080830192505050505050509192919290505050610ca5565b6040518080602001806020018681526020018581526020018473ffffffffffffffffffffffffffffffffffffffff1673ffffffffffffffffffffffffffffffffffffffff168152602001838103835288818151815260200191508051906020019080838360005b8381101561020f5780820151818401526020810190506101f4565b50505050905090810190601f16801561023c5780820380516001836020036101000a031916815260200191505b50838103825287818151815260200191508051906020019080838360005b8381101561027557808201518184015260208101905061025a565b50505050905090810190601f1680156102a25780820380516001836020036101000a031916815260200191505b5097505050505050505060405180910390f35b610405600480360360408110156102cb57600080fd5b81019080803590602001906401000000008111156102e857600080fd5b8201836020820111156102fa57600080fd5b8035906020019184600183028401116401000000008311171561031c57600080fd5b91908080601f016020809104026020016040519081016040528093929190818152602001838380828437600081840152601f19601f8201169050808301925050505050505091929192908035906020019064010000000081111561037f57600080fd5b82018360208201111561039157600080fd5b803590602001918460018302840111640100000000831117156103b357600080fd5b91908080601f016020809104026020016040519081016040528093929190818152602001838380828437600081840152601f19601f820116905080830192505050505050509192919290505050611165565b005b6104c06004803603602081101561041d57600080fd5b810190808035906020019064010000000081111561043a57600080fd5b82018360208201111561044c57600080fd5b8035906020019184600183028401116401000000008311171561046e57600080fd5b91908080601f016020809104026020016040519081016040528093929190818152602001838380828437600081840152601f19601f82011690508083019250505050505050919291929050505061173f565b005b610612600480360360408110156104d857600080fd5b81019080803590602001906401000000008111156104f557600080fd5b82018360208201111561050757600080fd5b8035906020019184600183028401116401000000008311171561052957600080fd5b91908080601f016020809104026020016040519081016040528093929190818152602001838380828437600081840152601f19601f8201169050808301925050505050505091929192908035906020019064010000000081111561058c57600080fd5b82018360208201111561059e57600080fd5b803590602001918460018302840111640100000000831117156105c057600080fd5b91908080601f016020809104026020016040519081016040528093929190818152602001838380828437600081840152601f19601f820116905080830192505050505050509192919290505050611bb7565b005b61068b6004803603602081101561062a57600080fd5b810190808035906020019064010000000081111561064757600080fd5b82018360208201111561065957600080fd5b8035906020019184600183028401116401000000008311171561067b57600080fd5b90919293919293905050506120e0565b005b6106cf600480360360208110156106a357600080fd5b81019080803573ffffffffffffffffffffffffffffffffffffffff169060200190929190505050612242565b005b610713600480360360208110156106e757600080fd5b81019080803573ffffffffffffffffffffffffffffffffffffffff169060200190929190505050612395565b60405180806020018773ffffffffffffffffffffffffffffffffffffffff1673ffffffffffffffffffffffffffffffffffffffff1681526020018060200186815260200185151515158152602001848152602001838103835289818151815260200191508051906020019080838360005b8381101561079f578082015181840152602081019050610784565b50505050905090810190601f1680156107cc5780820380516001836020036101000a031916815260200191505b50838103825287818151815260200191508051906020019080838360005b838110156108055780820151818401526020810190506107ea565b50505050905090810190601f1680156108325780820380516001836020036101000a031916815260200191505b509850505050505050505060405180910390f35b6108886004803603602081101561085c57600080fd5b81019080803573ffffffffffffffffffffffffffffffffffffffff1690602001909291905050506126aa565b005b610943600480360360208110156108a057600080fd5b81019080803590602001906401000000008111156108bd57600080fd5b8201836020820111156108cf57600080fd5b803590602001918460018302840111640100000000831117156108f157600080fd5b91908080601f016020809104026020016040519081016040528093929190818152602001838380828437600081840152601f19601f820116905080830192505050505050509192919290505050612810565b005b6109876004803603602081101561095b57600080fd5b81019080803573ffffffffffffffffffffffffffffffffffffffff169060200190929190505050612c88565b6040518082815260200191505060405180910390f35b610b0d600480360360608110156109b357600080fd5b81019080803590602001906401000000008111156109d057600080fd5b8201836020820111156109e257600080fd5b80359060200191846001830284011164010000000083111715610a0457600080fd5b91908080601f016020809104026020016040519081016040528093929190818152602001838380828437600081840152601f19601f820116905080830192505050505050509192919290803573ffffffffffffffffffffffffffffffffffffffff16906020019092919080359060200190640100000000811115610a8757600080fd5b820183602082011115610a9957600080fd5b80359060200191846001830284011164010000000083111715610abb57600080fd5b91908080601f016020809104026020016040519081016040528093929190818152602001838380828437600081840152601f19601f820116905080830192505050505050509192919290505050612cd4565b005b610b5160048036036020811015610b2557600080fd5b81019080803573ffffffffffffffffffffffffffffffffffffffff169060200190929190505050612f61565b005b610ca360048036036040811015610b6957600080fd5b8101908080359060200190640100000000811115610b8657600080fd5b820183602082011115610b9857600080fd5b80359060200191846001830284011164010000000083111715610bba57600080fd5b91908080601f016020809104026020016040519081016040528093929190818152602001838380828437600081840152601f19601f82011690508083019250505050505050919291929080359060200190640100000000811115610c1d57600080fd5b820183602082011115610c2f57600080fd5b80359060200191846001830284011164010000000083111715610c5157600080fd5b91908080601f016020809104026020016040519081016040528093929190818152602001838380828437600081840152601f19601f820116905080830192505050505050509192919290505050613251565b005b60608060008060008073ffffffffffffffffffffffffffffffffffffffff166003876040518082805190602001908083835b60208310610cfa5780518252602082019150602081019050602083039250610cd7565b6001836020036101000a038019825116818451168082178552505050505050905001915050908152602001604051809103902060040160009054906101000a900473ffffffffffffffffffffffffffffffffffffffff1673ffffffffffffffffffffffffffffffffffffffff161415610ddb576040517f08c379a00000000000000000000000000000000000000000000000000000000081526004018080602001828103825260178152602001807f4e6f205375636820437573746f6d657220466f756e642100000000000000000081525060200191505060405180910390fd5b6003866040518082805190602001908083835b60208310610e115780518252602082019150602081019050602083039250610dee565b6001836020036101000a03801982511681845116808217855250505050505090500191505090815260200160405180910390206000016003876040518082805190602001908083835b60208310610e7d5780518252602082019150602081019050602083039250610e5a565b6001836020036101000a03801982511681845116808217855250505050505090500191505090815260200160405180910390206001016003886040518082805190602001908083835b60208310610ee95780518252602082019150602081019050602083039250610ec6565b6001836020036101000a0380198251168184511680821785525050505050509050019150509081526020016040518091039020600201546003896040518082805190602001908083835b60208310610f565780518252602082019150602081019050602083039250610f33565b6001836020036101000a03801982511681845116808217855250505050505090500191505090815260200160405180910390206003015460038a6040518082805190602001908083835b60208310610fc35780518252602082019150602081019050602083039250610fa0565b6001836020036101000a038019825116818451168082178552505050505050905001915050908152602001604051809103902060040160009054906101000a900473ffffffffffffffffffffffffffffffffffffffff16848054600181600116156101000203166002900480601f0160208091040260200160405190810160405280929190818152602001828054600181600116156101000203166002900480156110af5780601f10611084576101008083540402835291602001916110af565b820191906000526020600020905b81548152906001019060200180831161109257829003601f168201915b50505050509450838054600181600116156101000203166002900480601f01602080910402602001604051908101604052809291908181526020018280546001816001161561010002031660029004801561114b5780601f106111205761010080835404028352916020019161114b565b820191906000526020600020905b81548152906001019060200180831161112e57829003601f168201915b505050505093509450945094509450945091939590929450565b600073ffffffffffffffffffffffffffffffffffffffff166002836040518082805190602001908083835b602083106111b35780518252602082019150602081019050602083039250611190565b6001836020036101000a038019825116818451168082178552505050505050905001915050908152602001604051809103902060020160009054906101000a900473ffffffffffffffffffffffffffffffffffffffff1673ffffffffffffffffffffffffffffffffffffffff161415611294576040517f08c379a00000000000000000000000000000000000000000000000000000000081526004018080602001828103825260178152602001807f4e6f205375636820437573746f6d657220466f756e642100000000000000000081525060200191505060405180910390fd5b600073ffffffffffffffffffffffffffffffffffffffff166003836040518082805190602001908083835b602083106112e257805182526020820191506020810190506020830392506112bf565b6001836020036101000a038019825116818451168082178552505050505050905001915050908152602001604051809103902060040160009054906101000a900473ffffffffffffffffffffffffffffffffffffffff1673ffffffffffffffffffffffffffffffffffffffff16146113c2576040517f08c379a00000000000000000000000000000000000000000000000000000000081526004018080602001828103825260188152602001807f437573746f6d657220416c72656164792050726573656e74000000000000000081525060200191505060405180910390fd5b600073ffffffffffffffffffffffffffffffffffffffff16600460003373ffffffffffffffffffffffffffffffffffffffff1673ffffffffffffffffffffffffffffffffffffffff16815260200190815260200160002060010160009054906101000a900473ffffffffffffffffffffffffffffffffffffffff1673ffffffffffffffffffffffffffffffffffffffff1614156114aa576040517f08c379a000000000000000000000000000000000000000000000000000000000815260040180806020018281038252602a815260200180613c91602a913960400191505060405180910390fd5b816003836040518082805190602001908083835b602083106114e157805182526020820191506020810190506020830392506114be565b6001836020036101000a0380198251168184511680821785525050505050509050019150509081526020016040518091039020600001908051906020019061152a929190613b28565b50806003836040518082805190602001908083835b60208310611562578051825260208201915060208101905060208303925061153f565b6001836020036101000a038019825116818451168082178552505050505050905001915050908152602001604051809103902060010190805190602001906115ab929190613b28565b50336003836040518082805190602001908083835b602083106115e357805182526020820191506020810190506020830392506115c0565b6001836020036101000a038019825116818451168082178552505050505050905001915050908152602001604051809103902060040160006101000a81548173ffffffffffffffffffffffffffffffffffffffff021916908373ffffffffffffffffffffffffffffffffffffffff16021790555060006003836040518082805190602001908083835b6020831061168f578051825260208201915060208101905060208303925061166c565b6001836020036101000a03801982511681845116808217855250505050505090500191505090815260200160405180910390206002018190555060006003836040518082805190602001908083835b6020831061170157805182526020820191506020810190506020830392506116de565b6001836020036101000a0380198251168184511680821785525050505050509050019150509081526020016040518091039020600301819055505050565b60011515600460003373ffffffffffffffffffffffffffffffffffffffff1673ffffffffffffffffffffffffffffffffffffffff16815260200190815260200160002060040160009054906101000a900460ff16151514611808576040517f08c379a000000000000000000000000000000000000000000000000000000000815260040180806020018281038252601b8152602001807f596f7520417265204e6f7420416c6c6f77656420746f20566f7465000000000081525060200191505060405180910390fd5b600073ffffffffffffffffffffffffffffffffffffffff166003826040518082805190602001908083835b602083106118565780518252602082019150602081019050602083039250611833565b6001836020036101000a038019825116818451168082178552505050505050905001915050908152602001604051809103902060040160009054906101000a900473ffffffffffffffffffffffffffffffffffffffff1673ffffffffffffffffffffffffffffffffffffffff161415611937576040517f08c379a00000000000000000000000000000000000000000000000000000000081526004018080602001828103825260178152602001807f4e6f205375636820437573746f6d657220466f756e642100000000000000000081525060200191505060405180910390fd5b600073ffffffffffffffffffffffffffffffffffffffff16600460003373ffffffffffffffffffffffffffffffffffffffff1673ffffffffffffffffffffffffffffffffffffffff16815260200190815260200160002060010160009054906101000a900473ffffffffffffffffffffffffffffffffffffffff1673ffffffffffffffffffffffffffffffffffffffff161415611a1f576040517f08c379a000000000000000000000000000000000000000000000000000000000815260040180806020018281038252602a815260200180613c91602a913960400191505060405180910390fd5b3373ffffffffffffffffffffffffffffffffffffffff166003826040518082805190602001908083835b60208310611a6c5780518252602082019150602081019050602083039250611a49565b6001836020036101000a038019825116818451168082178552505050505050905001915050908152602001604051809103902060040160009054906101000a900473ffffffffffffffffffffffffffffffffffffffff1673ffffffffffffffffffffffffffffffffffffffff161415611b30576040517f08c379a0000000000000000000000000000000000000000000000000000000008152600401808060200182810382526031815260200180613cbb6031913960400191505060405180910390fd5b60016003826040518082805190602001908083835b60208310611b685780518252602082019150602081019050602083039250611b45565b6001836020036101000a038019825116818451168082178552505050505050905001915050908152602001604051809103902060030160008282540192505081905550611bb4816136ca565b50565b600073ffffffffffffffffffffffffffffffffffffffff166002836040518082805190602001908083835b60208310611c055780518252602082019150602081019050602083039250611be2565b6001836020036101000a038019825116818451168082178552505050505050905001915050908152602001604051809103902060020160009054906101000a900473ffffffffffffffffffffffffffffffffffffffff1673ffffffffffffffffffffffffffffffffffffffff1614611ce5576040517f08c379a00000000000000000000000000000000000000000000000000000000081526004018080602001828103825260188152602001807f437573746f6d657220416c72656164792050726573656e74000000000000000081525060200191505060405180910390fd5b600073ffffffffffffffffffffffffffffffffffffffff166003836040518082805190602001908083835b60208310611d335780518252602082019150602081019050602083039250611d10565b6001836020036101000a038019825116818451168082178552505050505050905001915050908152602001604051809103902060040160009054906101000a900473ffffffffffffffffffffffffffffffffffffffff1673ffffffffffffffffffffffffffffffffffffffff1614611df6576040517f08c379a0000000000000000000000000000000000000000000000000000000008152600401808060200182810382526028815260200180613c166028913960400191505060405180910390fd5b600073ffffffffffffffffffffffffffffffffffffffff16600460003373ffffffffffffffffffffffffffffffffffffffff1673ffffffffffffffffffffffffffffffffffffffff16815260200190815260200160002060010160009054906101000a900473ffffffffffffffffffffffffffffffffffffffff1673ffffffffffffffffffffffffffffffffffffffff161415611ede576040517f08c379a000000000000000000000000000000000000000000000000000000000815260040180806020018281038252602a815260200180613c91602a913960400191505060405180910390fd5b816002836040518082805190602001908083835b60208310611f155780518252602082019150602081019050602083039250611ef2565b6001836020036101000a03801982511681845116808217855250505050505090500191505090815260200160405180910390206000019080519060200190611f5e929190613b28565b50806002836040518082805190602001908083835b60208310611f965780518252602082019150602081019050602083039250611f73565b6001836020036101000a03801982511681845116808217855250505050505090500191505090815260200160405180910390206001019080519060200190611fdf929190613b28565b50336002836040518082805190602001908083835b602083106120175780518252602082019150602081019050602083039250611ff4565b6001836020036101000a038019825116818451168082178552505050505050905001915050908152602001604051809103902060020160006101000a81548173ffffffffffffffffffffffffffffffffffffffff021916908373ffffffffffffffffffffffffffffffffffffffff1602179055506001600460003373ffffffffffffffffffffffffffffffffffffffff1673ffffffffffffffffffffffffffffffffffffffff168152602001908152602001600020600501600082825401925050819055505050565b600073ffffffffffffffffffffffffffffffffffffffff1660028383604051808383808284378083019250505092505050908152602001604051809103902060020160009054906101000a900473ffffffffffffffffffffffffffffffffffffffff1673ffffffffffffffffffffffffffffffffffffffff1614156121cd576040517f08c379a00000000000000000000000000000000000000000000000000000000081526004018080602001828103825260178152602001807f4e6f205375636820437573746f6d657220466f756e642100000000000000000081525060200191505060405180910390fd5b600282826040518083838082843780830192505050925050509081526020016040518091039020600080820160006122059190613ba8565b6001820160006122159190613ba8565b6002820160006101000a81549073ffffffffffffffffffffffffffffffffffffffff021916905550505050565b3373ffffffffffffffffffffffffffffffffffffffff16600160009054906101000a900473ffffffffffffffffffffffffffffffffffffffff1673ffffffffffffffffffffffffffffffffffffffff16146122e8576040517f08c379a0000000000000000000000000000000000000000000000000000000008152600401808060200182810382526024815260200180613c6d6024913960400191505060405180910390fd5b600460008273ffffffffffffffffffffffffffffffffffffffff1673ffffffffffffffffffffffffffffffffffffffff16815260200190815260200160002060040160009054906101000a900460ff1615600460008373ffffffffffffffffffffffffffffffffffffffff1673ffffffffffffffffffffffffffffffffffffffff16815260200190815260200160002060040160006101000a81548160ff02191690831515021790555050565b6060600060606000806000600460008873ffffffffffffffffffffffffffffffffffffffff1673ffffffffffffffffffffffffffffffffffffffff168152602001908152602001600020600001600460008973ffffffffffffffffffffffffffffffffffffffff1673ffffffffffffffffffffffffffffffffffffffff16815260200190815260200160002060010160009054906101000a900473ffffffffffffffffffffffffffffffffffffffff16600460008a73ffffffffffffffffffffffffffffffffffffffff1673ffffffffffffffffffffffffffffffffffffffff168152602001908152602001600020600201600460008b73ffffffffffffffffffffffffffffffffffffffff1673ffffffffffffffffffffffffffffffffffffffff16815260200190815260200160002060030154600460008c73ffffffffffffffffffffffffffffffffffffffff1673ffffffffffffffffffffffffffffffffffffffff16815260200190815260200160002060040160009054906101000a900460ff16600460008d73ffffffffffffffffffffffffffffffffffffffff1673ffffffffffffffffffffffffffffffffffffffff16815260200190815260200160002060050154858054600181600116156101000203166002900480601f0160208091040260200160405190810160405280929190818152602001828054600181600116156101000203166002900480156125f25780601f106125c7576101008083540402835291602001916125f2565b820191906000526020600020905b8154815290600101906020018083116125d557829003601f168201915b50505050509550838054600181600116156101000203166002900480601f01602080910402602001604051908101604052809291908181526020018280546001816001161561010002031660029004801561268e5780601f106126635761010080835404028352916020019161268e565b820191906000526020600020905b81548152906001019060200180831161267157829003601f168201915b5050505050935095509550955095509550955091939550919395565b3373ffffffffffffffffffffffffffffffffffffffff16600160009054906101000a900473ffffffffffffffffffffffffffffffffffffffff1673ffffffffffffffffffffffffffffffffffffffff1614612750576040517f08c379a0000000000000000000000000000000000000000000000000000000008152600401808060200182810382526024815260200180613c6d6024913960400191505060405180910390fd5b600460008273ffffffffffffffffffffffffffffffffffffffff1673ffffffffffffffffffffffffffffffffffffffff168152602001908152602001600020600080820160006127a09190613ba8565b6001820160006101000a81549073ffffffffffffffffffffffffffffffffffffffff02191690556002820160006127d79190613ba8565b60038201600090556004820160006101000a81549060ff0219169055600582016000905550506001600080828254039250508190555050565b60011515600460003373ffffffffffffffffffffffffffffffffffffffff1673ffffffffffffffffffffffffffffffffffffffff16815260200190815260200160002060040160009054906101000a900460ff161515146128d9576040517f08c379a000000000000000000000000000000000000000000000000000000000815260040180806020018281038252601b8152602001807f596f7520417265204e6f7420416c6c6f77656420746f20566f7465000000000081525060200191505060405180910390fd5b600073ffffffffffffffffffffffffffffffffffffffff166003826040518082805190602001908083835b602083106129275780518252602082019150602081019050602083039250612904565b6001836020036101000a038019825116818451168082178552505050505050905001915050908152602001604051809103902060040160009054906101000a900473ffffffffffffffffffffffffffffffffffffffff1673ffffffffffffffffffffffffffffffffffffffff161415612a08576040517f08c379a00000000000000000000000000000000000000000000000000000000081526004018080602001828103825260178152602001807f4e6f205375636820437573746f6d657220466f756e642100000000000000000081525060200191505060405180910390fd5b600073ffffffffffffffffffffffffffffffffffffffff16600460003373ffffffffffffffffffffffffffffffffffffffff1673ffffffffffffffffffffffffffffffffffffffff16815260200190815260200160002060010160009054906101000a900473ffffffffffffffffffffffffffffffffffffffff1673ffffffffffffffffffffffffffffffffffffffff161415612af0576040517f08c379a000000000000000000000000000000000000000000000000000000000815260040180806020018281038252602a815260200180613c91602a913960400191505060405180910390fd5b3373ffffffffffffffffffffffffffffffffffffffff166003826040518082805190602001908083835b60208310612b3d5780518252602082019150602081019050602083039250612b1a565b6001836020036101000a038019825116818451168082178552505050505050905001915050908152602001604051809103902060040160009054906101000a900473ffffffffffffffffffffffffffffffffffffffff1673ffffffffffffffffffffffffffffffffffffffff161415612c01576040517f08c379a000000000000000000000000000000000000000000000000000000000815260040180806020018281038252602f815260200180613c3e602f913960400191505060405180910390fd5b60016003826040518082805190602001908083835b60208310612c395780518252602082019150602081019050602083039250612c16565b6001836020036101000a038019825116818451168082178552505050505050905001915050908152602001604051809103902060020160008282540192505081905550612c85816136ca565b50565b6000600460008373ffffffffffffffffffffffffffffffffffffffff1673ffffffffffffffffffffffffffffffffffffffff168152602001908152602001600020600301549050919050565b3373ffffffffffffffffffffffffffffffffffffffff16600160009054906101000a900473ffffffffffffffffffffffffffffffffffffffff1673ffffffffffffffffffffffffffffffffffffffff1614612d7a576040517f08c379a0000000000000000000000000000000000000000000000000000000008152600401808060200182810382526024815260200180613c6d6024913960400191505060405180910390fd5b82600460008473ffffffffffffffffffffffffffffffffffffffff1673ffffffffffffffffffffffffffffffffffffffff1681526020019081526020016000206000019080519060200190612dd0929190613b28565b5081600460008473ffffffffffffffffffffffffffffffffffffffff1673ffffffffffffffffffffffffffffffffffffffff16815260200190815260200160002060010160006101000a81548173ffffffffffffffffffffffffffffffffffffffff021916908373ffffffffffffffffffffffffffffffffffffffff16021790555080600460008473ffffffffffffffffffffffffffffffffffffffff1673ffffffffffffffffffffffffffffffffffffffff1681526020019081526020016000206002019080519060200190612ea8929190613b28565b506001600460008473ffffffffffffffffffffffffffffffffffffffff1673ffffffffffffffffffffffffffffffffffffffff16815260200190815260200160002060040160006101000a81548160ff0219169083151502179055506000600460008473ffffffffffffffffffffffffffffffffffffffff1673ffffffffffffffffffffffffffffffffffffffff1681526020019081526020016000206005018190555060016000808282540192505081905550505050565b3373ffffffffffffffffffffffffffffffffffffffff168173ffffffffffffffffffffffffffffffffffffffff161415613003576040517f08c379a000000000000000000000000000000000000000000000000000000000815260040180806020018281038252601b8152602001807f596f752063616e277420766f746520666f7220796f757273656c66000000000081525060200191505060405180910390fd5b600073ffffffffffffffffffffffffffffffffffffffff16600460003373ffffffffffffffffffffffffffffffffffffffff1673ffffffffffffffffffffffffffffffffffffffff16815260200190815260200160002060010160009054906101000a900473ffffffffffffffffffffffffffffffffffffffff1673ffffffffffffffffffffffffffffffffffffffff1614156130eb576040517f08c379a000000000000000000000000000000000000000000000000000000000815260040180806020018281038252602a815260200180613c91602a913960400191505060405180910390fd5b6001600460008373ffffffffffffffffffffffffffffffffffffffff1673ffffffffffffffffffffffffffffffffffffffff1681526020019081526020016000206003016000828254019250508190555060026000548161314857fe5b04600460008373ffffffffffffffffffffffffffffffffffffffff1673ffffffffffffffffffffffffffffffffffffffff1681526020019081526020016000206003015410156131f2576001600460008373ffffffffffffffffffffffffffffffffffffffff1673ffffffffffffffffffffffffffffffffffffffff16815260200190815260200160002060040160006101000a81548160ff02191690831515021790555061324e565b6000600460008373ffffffffffffffffffffffffffffffffffffffff1673ffffffffffffffffffffffffffffffffffffffff16815260200190815260200160002060040160006101000a81548160ff0219169083151502179055505b50565b3373ffffffffffffffffffffffffffffffffffffffff166003836040518082805190602001908083835b6020831061329e578051825260208201915060208101905060208303925061327b565b6001836020036101000a038019825116818451168082178552505050505050905001915050908152602001604051809103902060040160009054906101000a900473ffffffffffffffffffffffffffffffffffffffff1673ffffffffffffffffffffffffffffffffffffffff161461337e576040517f08c379a00000000000000000000000000000000000000000000000000000000081526004018080602001828103825260178152602001807f4e6f205375636820437573746f6d657220466f756e642100000000000000000081525060200191505060405180910390fd5b806003836040518082805190602001908083835b602083106133b55780518252602082019150602081019050602083039250613392565b6001836020036101000a038019825116818451168082178552505050505050905001915050908152602001604051809103902060010190805190602001906133fe929190613b28565b50336003836040518082805190602001908083835b602083106134365780518252602082019150602081019050602083039250613413565b6001836020036101000a038019825116818451168082178552505050505050905001915050908152602001604051809103902060040160006101000a81548173ffffffffffffffffffffffffffffffffffffffff021916908373ffffffffffffffffffffffffffffffffffffffff16021790555060016003836040518082805190602001908083835b602083106134e257805182526020820191506020810190506020830392506134bf565b6001836020036101000a038019825116818451168082178552505050505050905001915050908152602001604051809103902060040160146101000a81548160ff02191690831515021790555060006003836040518082805190602001908083835b602083106135675780518252602082019150602081019050602083039250613544565b6001836020036101000a03801982511681845116808217855250505050505090500191505090815260200160405180910390206002018190555060006003836040518082805190602001908083835b602083106135d957805182526020820191506020810190506020830392506135b6565b6001836020036101000a0380198251168184511680821785525050505050509050019150509081526020016040518091039020600301819055506002826040518082805190602001908083835b602083106136495780518252602082019150602081019050602083039250613626565b6001836020036101000a03801982511681845116808217855250505050505090500191505090815260200160405180910390206000808201600061368d9190613ba8565b60018201600061369d9190613ba8565b6002820160006101000a81549073ffffffffffffffffffffffffffffffffffffffff021916905550505050565b6003600054816136d657fe5b046003826040518082805190602001908083835b6020831061370d57805182526020820191506020810190506020830392506136ea565b6001836020036101000a038019825116818451168082178552505050505050905001915050908152602001604051809103902060030154106137d35760006003826040518082805190602001908083835b60208310613781578051825260208201915060208101905060208303925061375e565b6001836020036101000a038019825116818451168082178552505050505050905001915050908152602001604051809103902060040160146101000a81548160ff0219169083151502179055506139c4565b6003816040518082805190602001908083835b6020831061380957805182526020820191506020810190506020830392506137e6565b6001836020036101000a0380198251168184511680821785525050505050509050019150509081526020016040518091039020600301546003826040518082805190602001908083835b602083106138765780518252602082019150602081019050602083039250613853565b6001836020036101000a038019825116818451168082178552505050505050905001915050908152602001604051809103902060020154111561393d5760016003826040518082805190602001908083835b602083106138eb57805182526020820191506020810190506020830392506138c8565b6001836020036101000a038019825116818451168082178552505050505050905001915050908152602001604051809103902060040160146101000a81548160ff0219169083151502179055506139c3565b60016003826040518082805190602001908083835b602083106139755780518252602082019150602081019050602083039250613952565b6001836020036101000a038019825116818451168082178552505050505050905001915050908152602001604051809103902060040160146101000a81548160ff0219169083151502179055505b5b6001600054036003826040518082805190602001908083835b60208310613a0057805182526020820191506020810190506020830392506139dd565b6001836020036101000a0380198251168184511680821785525050505050509050019150509081526020016040518091039020600301541415613b25576000600460006003846040518082805190602001908083835b60208310613a795780518252602082019150602081019050602083039250613a56565b6001836020036101000a038019825116818451168082178552505050505050905001915050908152602001604051809103902060040160009054906101000a900473ffffffffffffffffffffffffffffffffffffffff1673ffffffffffffffffffffffffffffffffffffffff1673ffffffffffffffffffffffffffffffffffffffff16815260200190815260200160002060040160006101000a81548160ff0219169083151502179055505b50565b828054600181600116156101000203166002900490600052602060002090601f016020900481019282601f10613b6957805160ff1916838001178555613b97565b82800160010185558215613b97579182015b82811115613b96578251825591602001919060010190613b7b565b5b509050613ba49190613bf0565b5090565b50805460018160011615610100020316600290046000825580601f10613bce5750613bed565b601f016020900490600052602060002090810190613bec9190613bf0565b5b50565b613c1291905b80821115613c0e576000816000905550600101613bf6565b5090565b9056fe437573746f6d657220416c72656164792050726573656e7420696e20437573746f6d65724c697374596f752063616e2774207570766f746520617320796f75206f6e6c7920616464656420746869732072657175657374594f552048415645204e4f2041434345535320544f20544849532046554e4354494f4e2146756e6374696f6e20416c6c6f776564206f6e6c7920666f7220526573676974657265642042616e6b73596f752063616e277420646f776e766f746520617320796f75206f6e6c7920616464656420746869732072657175657374a265627a7a7230582099a33b9c9ced7f9d9c192312cd4fe301494c3b4c92ba3796673cc9230cf1564c64736f6c63430005090032",
  "source": "pragma solidity ^0.5.9;\n\ncontract KYC{\n    \n    struct Customer{\n        string userName;\n        string customerData;\n        uint upVotes;\n        uint downVotes;\n        address bank;\n        bool KYC_status;\n    }\n\n    struct Bank{\n        string Name;\n        address ethAddress;\n        string regNumber;\n        uint downVotes;\n        bool isAllowedToVote;\n        uint KYCCount;\n    }\n\n    struct KYCRequest{\n        string userName; \n        string customerData;\n        address bank;\n    }\n    \n    uint TotalNoOfBanks;\n    address admin ;\n\n    constructor() public {\n        admin = msg.sender;\n        TotalNoOfBanks = 0;\n    }\n\n    \n    mapping(string => KYCRequest) requests;\n    mapping(string => Customer) customers;\n    mapping(address => Bank) bankList;\n\n    //bank\n    //Add Request\n    function addRequests(string memory _userName,string memory  _customerData) public {\n            require(requests[_userName].bank == address(0),\"Customer Already Present\");\n            require(customers[_userName].bank == address(0),\"Customer Already Present in CustomerList\");\n            require(bankList[msg.sender].ethAddress != address(0),\"Function Allowed only for Resgitered Banks\");\n            requests[_userName].userName = _userName;\n            requests[_userName].customerData = _customerData;\n            requests[_userName].bank = msg.sender ;\n            bankList[msg.sender].KYCCount += 1;\n\n    }\n\n    //adding it to Customer list from request list\n    // function RequestToCustomer(string memory _userName) public {\n    //     require(requests[_userName].bank != address(0),\"No Such Customer Found!\");\n    //     require(customers[_userName].bank == address(0),\"Customer Already Present in CustomerList\");\n    //     addCustomer(requests[_userName].userName,requests[_userName].customerData);\n    //     //delete requests[_userName];\n    // }\n    //Add Customer\n    function addCustomer(string memory _userName,string memory  _customerData) public {\n            require(requests[_userName].bank != address(0),\"No Such Customer Found!\");\n            require(customers[_userName].bank == address(0),\"Customer Already Present\");\n            require(bankList[msg.sender].ethAddress != address(0),\"Function Allowed only for Resgitered Banks\");\n            customers[_userName].userName = _userName;\n            customers[_userName].customerData = _customerData;\n            customers[_userName].bank = msg.sender;\n            customers[_userName].upVotes = 0;\n            customers[_userName].downVotes = 0;\n\n\n    }\n    //Remove Request\n    function removeRequest(string calldata _userName) external{\n        require(requests[_userName].bank != address(0),\"No Such Customer Found!\");\n        delete requests[_userName];\n\n    }\n\n    //View Customer\n    function viewCustomer(string memory  _userName)public view returns(string memory ,string memory ,uint ,uint ,address ) {\n        require(customers[_userName].bank != address(0),\"No Such Customer Found!\");\n        return(customers[_userName].userName,customers[_userName].customerData,customers[_userName].upVotes,customers[_userName].downVotes,customers[_userName].bank);\n    }\n\n    //Upvote Customers\n    function upVoteKYCRequests(string memory _userName) public isAllowedToVote {\n        require(customers[_userName].bank != address(0),\"No Such Customer Found!\");\n        require(bankList[msg.sender].ethAddress != address(0),\"Function Allowed only for Resgitered Banks\");\n        require(customers[_userName].bank != msg.sender,\"You can't upvote as you only added this request\"); //requesting bank cannot upvote for kyc as it has upvoted in start as default\n        customers[_userName].upVotes += 1;\n        \n        KYC_statusCheck(_userName);\n    }\n\n    //Downvote Customers\n    function downVoteKYCRequests(string memory _userName) public isAllowedToVote {\n        require(customers[_userName].bank != address(0),\"No Such Customer Found!\");\n        require(bankList[msg.sender].ethAddress != address(0),\"Function Allowed only for Resgitered Banks\");\n        require(customers[_userName].bank != msg.sender,\"You can't downvote as you only added this request\"); //requesting bank cannot upvote for kyc as it has upvoted in start as default\n        customers[_userName].downVotes += 1;\n\n    //    if(customer[_userName].bankVoteMap)\n        KYC_statusCheck(_userName);\n    }\n\n    // checking KYS conditions of a customer\n    function KYC_statusCheck(string memory _userName) internal {\n        \n        if(customers[_userName].downVotes >= TotalNoOfBanks/3){\n            customers[_userName].KYC_status =false;  \n        }\n        else if(customers[_userName].upVotes > customers[_userName].downVotes){\n            customers[_userName].KYC_status = true;  \n        }\n        else{\n            customers[_userName].KYC_status = true; \n        }\n\n        if(customers[_userName].downVotes == TotalNoOfBanks - 1 ){\n            bankList[customers[_userName].bank].isAllowedToVote = false;\n        }\n    }\n\n    //Modify Customer\n    function modifyCustomer( string memory  _userName,string memory  _newCustomerData) public {\n        require(customers[_userName].bank == msg.sender,\"No Such Customer Found!\");\n        //customers[_userName].userName = _userName;\n        customers[_userName].customerData  = _newCustomerData;\n        customers[_userName].bank = msg.sender;\n        customers[_userName].KYC_status = true;\n        customers[_userName].upVotes = 0;\n        customers[_userName].downVotes = 0; \n        delete requests[_userName];\n\n    }\n\n    //Get Bank Complaints\n    function viewComplaints(address _bankAddress) public view returns(uint){\n        return(bankList[_bankAddress].downVotes);\n    }\n\n    //View Bank Details\n    function viewBankDetails(address _bankAddress) public view returns(string memory Name,\n        address ethAddress,\n        string memory regNumber,\n        uint downVotes,\n        bool isAllowedToVote,\n        uint KYCCount){\n        return(bankList[_bankAddress].Name,bankList[_bankAddress].ethAddress,bankList[_bankAddress].regNumber,bankList[_bankAddress].downVotes,bankList[_bankAddress].isAllowedToVote,bankList[_bankAddress].KYCCount);\n    }\n\n    //Report Bank\n    function reportABank(address _bankAddress) public{\n        require(_bankAddress != msg.sender,\"You can't vote for yourself\");\n        require(bankList[msg.sender].ethAddress != address(0),\"Function Allowed only for Resgitered Banks\");\n\n        bankList[_bankAddress].downVotes += 1;\n\n\n        if(bankList[_bankAddress].downVotes < TotalNoOfBanks/2){\n            bankList[_bankAddress].isAllowedToVote = true;\n        }\n        else{\n            bankList[_bankAddress].isAllowedToVote = false;\n        }\n    }\n\n    //change isAllowedToVote to false if the number of downvotes for a user is more \n\n    //admin\n    function addBank(string memory  _name,address _bankAddress,string memory  _regNumber)public isAdmin{\n        bankList[_bankAddress].Name = _name;\n        bankList[_bankAddress].ethAddress = _bankAddress;\n        bankList[_bankAddress].regNumber = _regNumber;\n        bankList[_bankAddress].isAllowedToVote = true;\n        bankList[_bankAddress].KYCCount = 0 ; \n        TotalNoOfBanks += 1; \n    }\n\n    function removeBank(address _bankAddress)public isAdmin{\n        delete bankList[_bankAddress];\n        TotalNoOfBanks -=1;\n    }\n\n    function ChangeVotingStatusOfBank(address _bankAddress) public isAdmin{\n        bankList[_bankAddress].isAllowedToVote = !bankList[_bankAddress].isAllowedToVote;\n    }\n\n//modifiers\n\n    modifier isAllowedToVote{\n        require(bankList[msg.sender].isAllowedToVote == true,\"You Are Not Allowed to Vote\");\n        _;\n    }\n\n    modifier isAdmin{\n    require(admin == msg.sender,\"YOU HAVE NO ACCESS TO THIS FUNCTION!\");\n    _;\n    }\n\n\n\n\n}",
  "sourcePath": "/Users/PM/Desktop/AAN/contracts/KYC.sol",
  "compiler": {
    "name": "solc",
    "version": "0.5.9+commit.e560f70d.Emscripten.clang"
  },
  "schemaVersion": "3.4.3",
  "updatedAt": "2022-01-05T13:40:05.391Z",
  "devdoc": {
    "methods": {}
  },
  "userdoc": {
    "methods": {}
  }
}